:100000000C943E000C945B000C945B000C945B0021
:100010000C945B000C945B000C945B000C945B00F4
:100020000C945B000C945B000C945B000C945B00E4
:100030000C945B000C945B000C945B000C945B00D4
:100040000C945B000C945B000C945B000C945B00C4
:100050000C945B000C945B000C945B000C945B00B4
:100060000C945B000C945B000C945B000C945B00A4
:100070000C945B000C945B000C945B0011241FBE7D
:10008000CFEFD8E0DEBFCDBF12E0A0E0B1E0E2EC00
:10009000F3E202C005900D92A839B107D9F722E02A
:1000A000A8E9B2E001C01D92A939B207E1F70E94A8
:1000B0005A0F0C94B8110C9400008F929F92AF923B
:1000C000BF92CF92DF92EF92FF920F931F93CF9345
:1000D000DF93EC0102E023E04BE250E06AE270E0E3
:1000E0000E94AD0D4E0187E0880E911CC4010E9454
:1000F000CE0C6E018BE9C80ED11C088119812A81B2
:100100003B814C815D816E81C6010E9494057E0118
:1001100081EBE80EF11C27E042E250E061E270E082
:10012000C7010E942F055E0187EBA80EB11C62E09B
:10013000C5010E94670DB501CE0188549F4F0E94F2
:10014000000C88E0A80EB11C01E020E045E250E080
:1001500064E270E0C5010E94230B86019E01A501A7
:10016000B701CE018B539F4F0E9403028E01940171
:10017000A601B701CE0189529F4F0E940C04850150
:100180009601A701BE01CE018C519F4F0E94290309
:10019000FE01EA50FF4F10828BE7E80EF11CB70119
:1001A000CE0189509F4F0E941709C7010E94210F5D
:1001B000FE01E35DFE4F87E090E081939193119201
:1001C0001192119211928193919381939193119233
:1001D00011821082C65CDE4F1882DF91CF911F9191
:1001E0000F91FF90EF90DF90CF90BF90AF909F90D6
:1001F0008F9008950F931F93CF93DF93EC018A5252
:100200009F4F0E941E05811581F0FE01EB5CFE4FA1
:1002100000811181329122915291429172916291A9
:10022000CE0189509F4F0E943B0ADF91CF911F91D1
:100230000F910895EF92FF920F931F93CF93DF9347
:10024000182F092FCB016AE070E00E94B70F7B01E5
:10025000C0E0D0E0CE15DF0539F4DF91CF911F91DA
:100260000F91FF90EF900895812F902F0E94FA0038
:100270008FE19EE40197F1F700C000002196EACFDC
:100280009C01FC01E35DFE4F808191810097C9F0E4
:10029000AC01465051094230510598F032964081E8
:1002A00051814115510519F4918380830895F90115
:1002B000EF5CFE4F20813181232B19F484179507C1
:1002C00099F708959C01FC01E35DFE4F81919191A6
:1002D000408151814817590769F43896408141158A
:1002E00049F0D901AD5CBE4F86E090E08D939C93C0
:1002F00010820895F901EF5CFE4F4081518184170F
:10030000950761F4D901A95CBE4F8C91811531F03C
:10031000349686E090E0918380831C9208950F9339
:100320001F93CF93DF93EC01FC01E35DFE4F8081CF
:10033000918183309105C9F08530910501F10297D3
:1003400079F48E0109521F4FC8010E94D904C801D7
:100350000E944A04811521F0C95CDE4F81E0888348
:10036000DF91CF911F910F9108958E010B531F4F75
:10037000C8010E948302C8010E947002EBCF8E0167
:100380000C511F4FC8010E94AE03C8010E944403D4
:10039000E1CFEC0189509F4F0E94DA0A8E01055689
:1003A0001F4F7E0183EDE81A8EEFF80AC8010E9404
:1003B000A008C8010E94D606F70191838083CE0170
:1003C0000E948F01CE010E944001CE010E94620175
:1003D000C8010E94E405811549F38E0101541F4FA5
:1003E00061E0C8010E94580B64EF71E0CE010E94E9
:1003F0001A0162E0C8010E94580B64EF71E0CE015F
:100400000E941A01EDCF0F931F93FC0184E090E04E
:100410009183808373836283158304835783468328
:1004200031872087138612861486168615861786CE
:10043000108A1F910F910895FC0184850895FC0195
:1004400064870895AF92BF92CF92DF92EF92FF92AE
:100450000F931F93CF93DF93EC0100E010E08CE249
:10046000C82EDD24D39494E6B92EC801B6010E94AB
:10047000B70FA62EFB2CF61A62E08E819F810E9498
:10048000580BE12C8AE18A95F1F700C08C819D819F
:100490000E94A008E394FE10F5CF61E08E819F8159
:1004A0000E94580BF12CFA1011C00C591F4F003349
:1004B00085E71807D1F6DF91CF911F910F91FF903B
:1004C000EF90DF90CF90BF90AF9008958AE18A952A
:1004D000F1F700C08C819D810E94A008F394E3CFC6
:1004E000FC0180890895CB016AE070E00E94B70F9B
:1004F0006150710908F408958FE19EE40197F1F7C6
:1005000000C00000F5CFCF92DF92EF92FF920F93E1
:100510001F93CF93DF93EC018A819B810E944F054B
:100520008C018A859B858230910509F466C07CF434
:10053000009709F442C0019709F44AC0DF91CF91B6
:100540001F910F91FF90EF90DF90CF90089583302F
:10055000910509F468C0049789F7888599850E94F8
:100560001E0F8FEF93ED20E3815090402040E1F784
:1005700000C000008A819B810E944F057C0186E9B2
:10058000E816F10408F056C09FEF23ED80E3915088
:1005900020408040E1F700C000001B861A8681E001
:1005A000888B8E819F81DF91CF911F910F91FF905A
:1005B000EF90DF90CF900C94A80B0B54110981E0C1
:1005C00090E00031110508F0B9CF9B878A87B6CF3C
:1005D000888599850E941E0F62E08E819F810E940E
:1005E000580B2FEF83ED90E3215080409040E1F7CE
:1005F00000C0000082E090E0E8CF8A819B810E94E9
:100600004F056C018F3B910518F083E090E0DDCF42
:100610008B5491098437910510F4DE86CD86CE0186
:100620000E942202F2CF0E3B110508F487CF84E02E
:1006300090E0CBCF8A819B810E944F057C018FEF98
:1006400090E722E0815090402040E1F700C0000098
:1006500096CF0F931F93FC01718360835383428372
:100660003583248317821682118700878DE2828763
:100670001486158688E592E0978786878AE0808BC6
:10068000118A1F910F910895FC0185850895CF93DC
:10069000DF93EC0162E3888199810E94510E2FEF74
:1006A00082E597E0215080409040E1F700C00000D3
:1006B0006DE2888199810E94CE0E2FEF85EA9EE03F
:1006C000215080409040E1F700C000006DE2888139
:1006D00099810E94510E2FEF85EA9EE021508040C3
:1006E0009040E1F700C000006DE2888199810E948E
:1006F000CE0E2FEF85EA9EE0215080409040E1F73A
:1007000000C0000062E3888199810E94510E2FEFA2
:1007100082E597E0215080409040E1F700C0000062
:10072000888199810E941E0F2FEF83EC99E0215060
:1007300080409040E1F700C00000DF91CF91089524
:10074000FC01828193810E944F059C012A5A310944
:1007500081E02135310508F080E008950F931F9363
:10076000CF93DF93EC018A819B810E944F058C011E
:100770008E819F8181309105A1F08230910509F42D
:1007800048C0892B49F40A5A11090135110520F492
:1007900081E090E09F838E83DF91CF911F910F9135
:1007A0000895888199810E941E0F2FEF83EC99E0B4
:1007B000215080409040E1F700C00000CE010E942F
:1007C00047038C819D810E947108CE010E94A00385
:1007D0008115D9F0198A1C868E01055F1F4FC8014B
:1007E0000E941E058115D9F32FEF83ED90E3215070
:1007F00080409040E1F700C00000CE010E94A003BD
:100800008111C6CF82E090E0C5CF89898F5F898B47
:10081000DCCF81E08D87C0CF0F931F93FC017183E4
:100820006083538342833583248317830683118631
:1008300010861286138614861F910F9108950F93C8
:100840001F93CF938C01C3E040E050E064E372E477
:10085000F801848195810E94E20CFFE72AE186E09D
:10086000F15020408040E1F700C00000F801848191
:1008700095810E94620DFFE728E381E0F15020405E
:100880008040E1F700C00000CA95F1F6CF911F91BA
:100890000F910895FC0184850895CF93DF93EC01B7
:1008A000888199810E944F059C012E5B310981E06E
:1008B0002932310508F080E08A87DF91CF910895D1
:1008C0000F931F93CF938C01C8E02FE78AE196E046
:1008D000215080409040E1F700C00000C8010E9414
:1008E0004D04F8018285811539F0CA9571F780E0D1
:1008F000CF911F910F91089581E0FACF8F929F922F
:10090000AF92BF92CF92DF92EF92FF920F931F931D
:10091000CF93DF9300D000D000D0CDB7DEB77C01FD
:1009200086E0E4E3F2E0DE01119601900D928A95F3
:10093000E1F78E010F5F1F4F6E0127E0C20ED11C41
:10094000F80161918F0170E080E090E00E947A0FE1
:100950004B015C01B501A401F701848195810E94DE
:10096000E20CFFEF22E587E0F15020408040E1F704
:1009700000C00000F701828193810E94A0080C153D
:100980001D05F1F6F701848195810F900F900F906E
:100990000F900F900F90DF91CF911F910F91FF90CB
:1009A000EF90DF90CF90BF90AF909F908F900C947E
:1009B000620D0F931F93CF93DF93EC018881998190
:1009C0000E944F058C018885998581309105B9F089
:1009D0008230910519F1892B69F40E5B11090932F6
:1009E000110540F48E819F810E941E0F81E090E0EE
:1009F00099878887DF91CF911F910F9108958E81FC
:100A00009F810E941E0FCE010E941F04CE010E94F2
:100A100060048115C1F382E090E0EACF8B858111FB
:100A2000E9CF8A819B810E947108CE010E947E04D9
:100A300081E08B878C87DECF0D980895059B0DC0D4
:100A40002FE788E391E0215080409040E1F700C01B
:100A50000000882705998395089580E00895CF9335
:100A6000DF93EC01598348837B836A832C8305964B
:100A70000E94F70AEA81FB8120813C8181E090E0BD
:100A800001C0880F3A95EAF7809582238083DF9131
:100A9000CF910895FC01648105960C94000BCF92D0
:100AA000DF92EF92FF921F93CF93DF93182FD92FEE
:100AB000C8E0C12CD12C7601812F9D2F0E944A05C0
:100AC000C80ED91EE11CF11C8FE99FE00197F1F7D8
:100AD00000C00000CA9581F7D701C60123E0B69592
:100AE000A795979587952A95D1F7DF91CF911F917B
:100AF000FF90EF90DF90CF90089580B181700895BE
:100B000088270199839508958827029983950895E8
:100B100088270399839508958827049983950895D4
:100B200081B1807E81B90895EF92FF920F931F9358
:100B3000CF93DF9300D000D000D00F92CDB7DEB7B7
:100B40007C0109831A832B833C834D835E836F83EF
:100B5000DC011D9287E0FE01319601900D928A958D
:100B6000E1F788E2F7018087818782E382878CE35F
:100B70008387148687E090E096878587178601E053
:100B800020E045E250E064E270E0C70140960E9438
:100B9000230BC70127960FB6F894DEBF0FBECDBF5B
:100BA000DF91CF911F910F91FF90EF900C949005E2
:100BB000FC0180B18F7180830895FC0190819623A0
:100BC00081E0961380E00895FC0187850895FC017B
:100BD000608170E020E030E080E0AB01022E02C0D6
:100BE000559547950A94E2F741705527840F2F5F7A
:100BF0003F4F2530310589F70895FC0176876587D9
:100C00000895EF92FF920F931F93CF93DF93EC0120
:100C1000022F10E07C012FEFE21AF20A42E362E3B6
:100C2000C7010E94F40E8FEF95EA2EE081509040AC
:100C30002040E1F700C00000C7010E941E0FCE0156
:100C40000E94D805CE010E94E705823099F0988174
:100C500092FD10C0101710F0811561F08FEF94E332
:100C60002CE0815090402040E1F700C000001F5F61
:100C70001830A1F6DF91CF911F910F91FF90EF9067
:100C80000895CF92DF92EF92FF920F931F93CF932D
:100C9000DF93EC012FEF89E698E1215080409040EE
:100CA000E1F700C000006E012FEFC21AD20A4AE33A
:100CB00062E3C6010E94F40E8FEF9FEC27E08150A3
:100CC00090402040E1F700C00000C6010E941E0FC6
:100CD0008FEF92E527E0815090402040E1F700C07F
:100CE0000000CE010E94D80588818F7101E010E0DC
:100CF0008F3111F000E010E0000F111FF12C4AE3DA
:100D000062E3C6010E94F40E8FEF9FEC27E0815052
:100D100090402040E1F700C00000C6010E941E0F75
:100D20008FEF92E527E0815090402040E1F700C02E
:100D30000000CE010E94D8058881982F9F71EE2473
:100D4000E394EF0C9F3139F0982F9F709F3019F08A
:100D50008E718E3139F484E0F81649F0FE2C02E0F1
:100D600010E0CDCF92E0F91610F4FE2CC8CFCE01E2
:100D70000E94E705811511F003E010E0FE2C25E04C
:100D8000E212BDCFCE010E94D805C801029702979A
:100D900010F004E010E01E870D87DF91CF911F91C6
:100DA0000F91FF90EF90DF90CF900895FC01858523
:100DB00096850895CF93DF93EC010E9441068D85BF
:100DC0009E852FEF31EE44E0215030404040E1F766
:100DD00000C000008330910589F08430910591F0C6
:100DE0008230910599F49E878D8723E042E850E098
:100DF00062E3CE01DF91CF910C9401069E878D872F
:100E000021E0F4CF9E878D8724E0F0CFDF91CF9152
:100E10000895AF92BF92CF92DF92EF92FF920F931D
:100E20001F93CF93DF93EC016B017A0100E010E098
:100E30005C018FEFA81AB80A0C151D0560F080E060
:100E4000DF91CF911F910F91FF90EF90DF90CF90A6
:100E5000BF90AF9008956985C5010E94510E80E052
:100E600090E08E159F0559F4C5010E941E0F80B1B8
:100E70008F71888381110BC00E0D1F1DDDCFEFEC2C
:100E8000F7E03197F1F700C000000196EACF81E06A
:100E9000D7CFCF93DF93EC0146E362E301960E9444
:100EA000F40E2FEF8AED9AE1215080409040E1F757
:100EB00000C00000CE010E94D805CE010E94E705C7
:100EC000982F81E0911101C080E0DF91CF910895CA
:100ED0000F931F93CF93DF93EC018C010F5F1F4F94
:100EE0006885C8010E942B0E2FEF8FE097E22150FA
:100EF00080409040E1F700C00000C8010E941E0F32
:100F000081E08F87C801DF91CF911F910F910C94E1
:100F10001E0FEF92FF920F931F93CF93DF9300D09A
:100F20000F92CDB7DEB78A839B83EA81FB818785E9
:100F30008111CDC08485811509F448C085859685C9
:100F40009C012250310924303105B8F487E090E04B
:100F5000968785878A819B810E944907811136C0C7
:100F60008A819B810F900F900F90DF91CF911F91FD
:100F70000F91FF90EF900C9468079C012650310967
:100F80002230310510F0892B29F785E090E0EA81C5
:100F9000FB81968785871486608548E0460F8F0120
:100FA0000F5F1F4FC8010E94F40EFFEF24E38CE097
:100FB000F15020408040E1F700C00000C8010E94CD
:100FC0001E0FEA81FB8184858111C4CFEA81FB81F8
:100FD0001486F2E0F98380B18F71EA81FB8180830E
:100FE000811175C042E350E060E476E0CF010E94D9
:100FF000090781116CC080E4E82EF12C0A811B8165
:101000000F5F1F4FEA81FB816185C8010E94CE0EF0
:10101000FFE728E381E0F15020408040E1F700C085
:101020000000C8010E941E0F80B18F71EA81FB8110
:10103000808381114CC0F1E0EF1AF10819F742E307
:1010400050E060E476E08A819B810E94090781116B
:101050003EC02FEF81EE94E0215080409040E1F7B8
:1010600000C0000060E5C8010E94050EEFEFF3EF3D
:1010700021E0E150F0402040E1F700C00000C8014D
:101080000E941E0F80B18F71EA81FB8180838111E4
:101090001EC060E5C8010E94050EFFEF23EF81E04E
:1010A000F15020408040E1F700C00000C8010E94DC
:1010B0001E0F80B18F71EA81FB818083811107C08F
:1010C000F981F13009F44CCF21E0298384CF0F90CE
:1010D0000F900F90DF91CF911F910F91FF90EF90A4
:1010E00008950F931F93CF93DF93EC018C010F5F53
:1010F0001F4F80B1982F9F719883982F93709115EF
:1011000029F06DE2C8010E94510EF3CF82FF0CC09E
:10111000982F9171911108C0CE010196DF91CF9166
:101120001F910F910C941E0F8871811529F06DE2AB
:10113000C8010E94CE0EDDCFCE010E948907D9CF13
:10114000CF93DF93EC018F85811531F0CE010196AD
:10115000DF91CF910C941E0FE0B1EF71E883F0E0C6
:10116000E654FE4E0C94DF0F2C85CE01019621151E
:1011700079F02D853E85265031092230310540F425
:101180000E941E0F1C86CE01DF91CF910C94DA06CF
:10119000688548E0460F0E94F40E2FEF80E792E04A
:1011A000215080409040E1F700C00000CE01DF9167
:1011B000CF910C94890748856B85CE010196DF910C
:1011C000CF910C94F40E6A85695F4885F6CF81E073
:1011D0008C876885462FF1CF81E08C87688548E051
:1011E000460FEBCF4B85495F6885E7CF4B85FCCF3A
:1011F0006885CE0101960E942B0E2FEF83EF91E0C0
:10120000215080409040E1F700C00000DF91CF9175
:10121000089580B18F7188838111F8CF8C858111F9
:10122000C5CF8D859E850297049780F7BFCF0F931A
:10123000FC011082118212827483638301E020E03A
:1012400045E250E064E270E005960E94230B0F91A6
:1012500008950D980895059B0DC02FE788E391E050
:10126000215080409040E1F700C000008827059998
:101270008395089580E008952EE0629F800D911D72
:101280001124FC013B9687E02191319126503109D0
:101290002230310518F4DF011E921E928A95A1F7C3
:1012A00008952EE0629F800D911D1124FC013B9654
:1012B00087E0219131912530310519F4DF011E922B
:1012C0001E928A95B1F70895FC0181E090E096871F
:1012D000858723E030E0328B218B64E070E0768BF1
:1012E000658B42E050E0548F438F70A3678F94A3C7
:1012F00083A392A781A756A745A732AB21AB089538
:101300009C01633048F4FC01E60FF11D80818115DA
:1013100021F094E0813011F0089592E08F5F808396
:1013200087E0689FB0011124690F711D660F771F58
:10133000260F371F85E090E0F90194878387089591
:10134000FC01633088F4473078F487E0689FB0018F
:101350001124640F711D660F771FE60FF71F30E031
:101360002A5F3F4F348723870895FF920F931F937F
:10137000CF93DF938C01EC018EE0689FC00DD11DEF
:1013800011242B9687E0F82EF80183819481E8815F
:10139000F98131976AE672E0E730F10530F4E65200
:1013A000FE4E0C94DF0F6BE372E00E94360FF801E3
:1013B00083819481FA94D9F464E972E0DF91CF914A
:1013C0001F910F91FF900C94360F63E472E0EDCF04
:1013D0006BE472E0EACF63E572E0E7CF6BE572E0C1
:1013E000E4CF6FE572E0E1CF63E672E0DECF2296F4
:1013F00067E672E00E94360FC7CF0F931F93CF931B
:10140000DF93EC018C010B5F1F4F61E0C8010E946C
:10141000580B2FEF89E698E1215080409040E1F78A
:1014200000C00000CE010E94640964E772E08B8175
:101430009C810E94360F66E872E08B819C810E943D
:10144000360F60E0CE010E94B50961E0CE010E9436
:10145000B50962E0CE010E94B50965E972E08B81B1
:101460009C810E94360F62E0C801DF91CF911F91ED
:101470000F910C94580B6F927F928F929F92AF9224
:10148000BF92CF92DF92EF92FF920F931F93CF9371
:10149000DF937C01590168016250643008F07BC021
:1014A0004250443008F077C0642E712C24E0629FD3
:1014B000E00111244E01840E911C880C991CF4014A
:1014C000E058FE4F00811181602F0E943C09602F7F
:1014D000C7010E945109C8019927F401E05AFE4F43
:1014E00047E0049F800111240190F081E02DE00F7E
:1014F000F11FEE0FFF1FEE0DFF1DD401A05CBE4FCC
:101500002D913C913487238726E0A216B10499F4EB
:10151000F401E05EFE4F208131812F3F320759F008
:10152000020F131FF801EE0FFF1FEE0DFF1D25E048
:1015300030E03487238726E0C216D104D9F4C60DE3
:10154000D71DCC0FDD1FC050DF4F288139812F3FC1
:10155000320781F047E0489FF001499FF00D1124C8
:10156000E20FF31FEE0FFF1FEE0DFF1D85E090E071
:1015700094878387C701DF91CF911F910F91FF90CF
:10158000EF90DF90CF90BF90AF909F908F907F9023
:101590006F900C94FD09DF91CF911F910F91FF90F7
:1015A000EF90DF90CF90BF90AF909F908F907F9003
:1015B0006F9008950F931F93CF93DF93EC0108EC86
:1015C00010E0CE010E942B09811519F0CE010E9476
:1015D000FD098FE19EE40197F1F700C00000015082
:1015E000104079F7DF91CF911F910F9108951092DC
:1015F0007C0086E880937A00089510927A0008951E
:1016000080917C00807E80937C0080917C0067705C
:10161000862B80937C0080917A00806480937A008E
:1016200080917A0084FFFCCF80917A008061809362
:101630007A00209178008091790090E0982F882797
:10164000820F911D08950F93FC01DB0151834083AC
:1016500073836283248305834C9181E090E0BC0115
:1016600002C0660F771F2A95E2F79B0101C0880F21
:101670000A95EAF7282B242B2C930F910895D82F45
:10168000C92F61E08D2F9C2F0E94580B8FE697E1A8
:101690000197F1F700C0000062E08D2F9C2F0E949F
:1016A000580B8FEB9DE50197F1F700C00000E9CFE3
:1016B000FC01613041F0D8F16230F1F0633009F0A3
:1016C00046C00E943F0BA081B1812C91448181E0F2
:1016D00090E0BC0102C0660F771F4A95E2F7262B07
:1016E0002C93A081B1812C91358101C0880F3A954E
:1016F000EAF78095822319C0A081B1814C91848141
:1017000021E030E0B90102C0660F771F8A95E2F749
:10171000CB01809584238C93A081B1818C9195819C
:1017200001C0220F9A95EAF7822B8C930895A0812D
:10173000B1814C91248181E090E0BC0102C0660F30
:10174000771F2A95E2F79B0120952423C9CF08959E
:1017500060E00C94580BCF93DF93FC0124E6269FA6
:10176000C00111246FEF70E00E94CB0F362F261BB3
:10177000A081B1816C91848141E050E0EA0102C016
:10178000CC0FDD1F8A95E2F7CE01809586238C93DE
:10179000A081B1818C91958101C0440F9A95EAF79F
:1017A000842B8C9380E082131FC0A081B1812C9187
:1017B000448181E090E0BC0102C0660F771F4A952A
:1017C000E2F7262B2C93A081B1812C91458101C099
:1017D000880F4A95EAF7809582238C9380E08313E3
:1017E00009C0DF91CF910895DAE1DA95F1F700C0F1
:1017F0008F5FD9CF7AE17A95F1F700C08F5FEFCF95
:10180000FC017183608312828FEF838314821682BE
:1018100015820895FC01808191810C948E0D4F9268
:101820005F926F927F928F929F92AF92BF92CF9270
:10183000DF92EF92FF92CF93DF9300D000D000D0E1
:10184000CDB7DEB78D839E838EEB90E09C01261B87
:10185000370BB90180E090E00E947A0F20E030E081
:1018600046EE52E469837A838B839C8369817A8113
:101870008B819C810E94521020E030E04CE052E4C9
:101880002B013C01C301B2010E944B114B015C01D1
:10189000C501B4010E94CB106B015B0183E290E0B3
:1018A000FC01EC19FD096F014FEF60E0ED81FE8155
:1018B000808191810E948E0DC5016AE070E00E94D6
:1018C000B70F6150710928F540E06FEFED81FE819F
:1018D000808191810E948E0DC6016AE070E00E94B5
:1018E000B70F61507109E0F40F900F900F900F90B7
:1018F0000F900F90DF91CF91FF90EF90DF90CF90FE
:10190000BF90AF909F908F907F906F905F904F901F
:1019100008958FE19EE40197F1F700C00000D1CF58
:101920008FE19EE40197F1F700C00000DACFEF925B
:10193000FF920F931F93CF93DF938C01CB016FEF37
:1019400070E00E94B70F7B01C0E0D0E04C2F4095C3
:101950006C2FF801808191810E948E0D80E090E0D3
:101960008E159F0561F42196C115F1E0DF0771F72F
:10197000DF91CF911F910F91FF90EF900895EFECC1
:10198000F7E03197F1F700C000000196E9CF40E0A1
:1019900060E0FC01808191810C948E0DDC0184E972
:1019A000E0EAF1E001900D928A95E1F784B18C6054
:1019B00084B92A9884B5867784BD84B5826484BD51
:1019C00016BC08954F925F926F927F928F929F9272
:1019D000AF92BF92CF92DF92EF92FF92CF93DF93BD
:1019E000CDB7DEB72E970FB6F894DEBF0FBECDBFD2
:1019F0008D879E87942F852F20E030E044E352E4CA
:101A000099838A836B837C8369817A818B819C81B2
:101A10000E94E50F2B013C01C301B2010E94C410DA
:101A2000CB01880F991F880F991F2D853E85280FA0
:101A3000391FF901608171818281938125B52C7FE5
:101A400025BD25B5246025BD20E030E040E054E40C
:101A50000E944B114B015C01A501940160E074E20E
:101A600084EF9AE40E94521020E030E040E85FE307
:101A70006D837E838F8398876D817E818F8198852A
:101A80000E94E50F69877A878B879C8769857A85AD
:101A90008B859C850E94CB1067BD2E960FB6F8945F
:101AA000DEBF0FBECDBFDF91CF91FF90EF90DF90F3
:101AB000CF90BF90AF909F908F907F906F905F90EE
:101AC0004F90089585B5887F85BD17BC0895FC01AA
:101AD0006083613061F06230A1F061111EC084B199
:101AE000886184B981EA84BD82E085BD08958AB1A8
:101AF00080638AB981EA8093800082E080938100CC
:101B000008958AB1806C8AB91092B3001092B40023
:101B100081EA8093B0006093B1000895FC01808158
:101B2000813039F0823081F0811112C067BD48BD2B
:101B3000089570E0709389006093880050E050939E
:101B40008B0040938A0008956093B3004093B400E3
:101B5000089540E060E00C948E0D0F93CF93DF93D7
:101B6000EC01798368835B834A832C830D8361E076
:101B700006960E94670DE881F98140818C8121E001
:101B800030E0B90102C0660F771F8A95E2F7CB01FA
:101B90009D8101C0220F9A95EAF7822B842B8083C6
:101BA000DF91CF910F910895653608F064E62FEF2D
:101BB000629FC001112464E670E00E94B70F862F77
:101BC0000895FC01A281B381258181E090E001C0EC
:101BD000880F2A95EAF79C91613099F480958923C2
:101BE0008C93A281B381248181E090E001C0880FB1
:101BF0002A95EAF79C91413031F4809589238C93A2
:101C00000895892BEDCF892BFACFCF93DF9300D0A6
:101C10000F92CDB7DEB78A839B83653608F064E602
:101C20002FEF629FC001112464E670E00E94B70F9D
:101C3000698341E061E08A819B810E94E10D4981D5
:101C4000642F8A819B8106960F900F900F90DF91F1
:101C5000CF910C948E0DCF93DF9300D00F92CDB720
:101C6000DEB78A839B83653608F064E62FEF629FB8
:101C7000C001112464E670E00E94B70F698340E060
:101C800060E08A819B810E94E10D4981642F8A81F5
:101C90009B8106960F900F900F90DF91CF910C943F
:101CA0008E0DCF93DF9300D00F92CDB7DEB78A832E
:101CB0009B83653608F064E62FEF629FC001112414
:101CC00064E670E00E94B70F698341E060E08A81BA
:101CD0009B810E94E10D4981642F8A819B81069638
:101CE0000F900F900F90DF91CF910C948E0DCF92AB
:101CF000DF92EF92FF921F93CF93DF93EC01162FA9
:101D00006A01E12CF12CEC14FD0458F0CE0106968A
:101D1000DF91CF911F91FF90EF90DF90CF900C94C7
:101D2000A90D612FCE010E94050E2FEF84E39CE0E8
:101D3000215080409040E1F700C00000612FCE01AB
:101D40000E94510E8FE59AEE0197F1F700C0000056
:101D50009EEEE91A9DEFF90AD6CF1F93CF93DF933A
:101D6000EC01162F0E94050E2FEF84E39CE021501A
:101D700080409040E1F700C00000612FCE010E943A
:101D8000510E8FE59AEE0197F1F700C00000CE01E9
:101D90000696DF91CF911F910C94A90DCF93DF93FD
:101DA00000D00F92CDB7DEB78A839B83653608F0EB
:101DB00064E62FEF629FC001112464E670E00E9488
:101DC000B70F698340E061E08A819B810E94E10D49
:101DD0004981642F8A819B8106960F900F900F9006
:101DE000DF91CF910C948E0D0F931F93CF93DF93C0
:101DF0008C01C62FD42F41E061E00E94E10DD53661
:101E000008F0D4E62FEFD29FC001112464E670E001
:101E10000E94B70F462FC53608F0C4E62FEFC29FC9
:101E2000C001112464E670E00E94B70FC801069655
:101E3000DF91CF911F910F910C948E0D06960C940B
:101E4000A90D1092C5008FEC8093C4001092C000C1
:101E500088E18093C10086E08093C200089580915C
:101E6000C00085FFFCCF6093C60008950F931F93B9
:101E7000CF93DF93182F092FEB016991611105C0F2
:101E8000DF91CF911F910F910895812F902F0E9484
:101E90002F0FF3CF8091C00087FFFCCF8091C60049
:101EA00008958091C00087FB882780F9089580916C
:101EB000C6000895CDB7DEB7CB53D1400FB6F89426
:101EC000DEBF0FBECDBFCE0101960E945D00CE01E8
:101ED00001960E94C901CE0189549F4F0E94FD0ABC
:101EE00080E090E0C55CDE4F0FB6F894DEBF0FBE19
:101EF000CDBF0895E89409C097FB3EF49095809576
:101F0000709561957F4F8F4F9F4F9923A9F0F92FBF
:101F100096E9BB279395F695879577956795B7953D
:101F2000F111F8CFFAF4BB0F11F460FF1BC06F5F23
:101F30007F4F8F4F9F4F16C0882311F096E911C035
:101F4000772321F09EE8872F762F05C0662371F056
:101F500096E8862F70E060E02AF09A95660F771F6A
:101F6000881FDAF7880F9695879597F90895AA1B29
:101F7000BB1B51E107C0AA1FBB1FA617B70710F074
:101F8000A61BB70B881F991F5A95A9F780959095A6
:101F9000BC01CD01089597FB072E16F4009407D0DD
:101FA00077FD09D00E94B70F07FC05D03EF490954D
:101FB00081959F4F0895709561957F4F0895EE0F1D
:101FC000FF1F0590F491E02D09945058BB27AA27D4
:101FD0000E94FD0F0C9411110E94031138F00E9411
:101FE0000A1120F039F49F3F19F426F40C940011E3
:101FF0000EF4E095E7FB0C94FA10E92F0E942211F1
:1020000058F3BA17620773078407950720F079F42D
:10201000A6F50C9444110EF4E0950B2EBA2FA02DCA
:102020000B01B90190010C01CA01A0011124FF2785
:10203000591B99F0593F50F4503E68F11A16F04080
:10204000A22F232F342F4427585FF3CF469537957F
:102050002795A795F0405395C9F77EF41F16BA0B44
:10206000620B730B840BBAF09150A1F0FF0FBB1FF2
:10207000661F771F881FC2F70EC0BA0F621F731F3B
:10208000841F48F4879577956795B795F7959E3F98
:1020900008F0B0CF9395880F08F09927EE0F979529
:1020A000879508950E9466100C9411110E940A11E0
:1020B00058F00E94031140F029F45F3F29F00C947E
:1020C000FA1051110C9445110C9400110E94221128
:1020D00068F39923B1F3552391F3951B550BBB2757
:1020E000AA2762177307840738F09F5F5F4F220F9C
:1020F000331F441FAA1FA9F335D00E2E3AF0E0E893
:1021000032D091505040E695001CCAF72BD0FE2FDC
:1021100029D0660F771F881FBB1F26173707480770
:10212000AB07B0E809F0BB0B802DBF01FF27935828
:102130005F4F3AF09E3F510578F00C94FA100C94E2
:1021400045115F3FE4F3983ED4F386957795679504
:10215000B795F7959F5FC9F7880F911D969587955D
:1021600097F90895E1E0660F771F881FBB1F62177C
:1021700073078407BA0720F0621B730B840BBA0B3A
:10218000EE1F88F7E09508950E94CB106894B11176
:102190000C94451108950E942A1188F09F5798F0D9
:1021A000B92F9927B751B0F0E1F0660F771F881F5C
:1021B000991F1AF0BA95C9F714C0B13091F00E9476
:1021C0004411B1E008950C944411672F782F8827AB
:1021D000B85F39F0B93FCCF3869577956795B3959D
:1021E000D9F73EF490958095709561957F4F8F4F0C
:1021F0009F4F089597F99F6780E870E060E0089529
:102200009FEF80EC089500240A941616170618060E
:102210000906089500240A941216130614060506EA
:102220000895092E0394000C11F4882352F0BB0F7B
:1022300040F4BF2B11F460FF04C06F5F7F4F8F4FDE
:102240009F4F089557FD9058440F551F59F05F3F19
:1022500071F04795880F97FB991F61F09F3F79F0C8
:1022600087950895121613061406551FF2CF46954A
:10227000F1DF08C0161617061806991FF1CF8695CC
:102280007105610508940895E894BB2766277727B0
:10229000CB0197F908950E945E110C9411110E94D0
:1022A000031138F00E940A1120F0952311F00C94CC
:1022B000FA100C94001111240C9445110E94221163
:1022C00070F3959FC1F3950F50E0551F629FF00189
:1022D000729FBB27F00DB11D639FAA27F00DB11DA2
:1022E000AA1F649F6627B00DA11D661F829F22272B
:1022F000B00DA11D621F739FB00DA11D621F839FB2
:10230000A00D611D221F749F3327A00D611D231F87
:10231000849F600D211D822F762F6A2F11249F57D5
:1023200050409AF0F1F088234AF0EE0FFF1FBB1FD8
:10233000661F771F881F91505040A9F79E3F510597
:1023400080F00C94FA100C9445115F3FE4F3983E32
:10235000D4F3869577956795B795F795E7959F5F41
:10236000C1F7FE2B880F911D9695879597F90895D3
:10237000F894FFCF0909DB08E308DB08E708060942
:10238000EC08DB08F208060906090609EC0806094C
:102390000609B408F608F808060906090609060938
:1023A00006090609F208060906090609F6080609DB
:1023B000B408B408D309E509E809EB09EE09F40902
:0223C000F10921
:1023C200FFFF020004000400FFFFFFFF0400020001
:1023D200FFFF0400FFFFFFFFFFFFFFFF0200FFFF01
:1023E200FFFF0400020002000400FFFF02000400DD
:1023F20002000200FFFF0400020004000400FFFFCD
:102402000600060007000700070006000600060097
:102412000600070006000700060007000600060087
:10242200FFFF0600000000000200FFFF040006009C
:1024320004000000FFFF0200040002000600FFFF8C
:10244200FFFF0100020000000100FFFF0100000089
:1024520002000100FFFF0200000000000200FFFF77
:102462000000DC427B14E942A4F0F6425CCF024356
:102472000A970A437BD412435C8F1B435CCF2443ED
:10248200299C2E43000039430000444366A64F4373
:1024920000005C437B146943A4F07643A4D08243DA
:1024A2000A978A437BD49243A4909B43A4D0A4432B
:1024B200719DAE43B8FEB8430000C44366A6CF4345
:1024C2000000DC437B14E943A4F0F64300D002444D
:1024D200AE970A441FD5124400901B44A4D0244452
:1024E200719D2E445CFF38445CFF43440AA74F446D
:1024F20000005C443C404348434000E2948050E288
:10250200948000E294804DE2948000E2948049E25B
:10251200948000E2948044E2948000284F29003E97
:102522003E3E003C3C3C00E29480E29480E2948097
:10253200E29480000A726F626F7420203A2043484E
:10254200415247450A00657175697065203A203528
:082552003435360A0A0A0000C4
:00000001FF
